:10017F0019123F065B4F666D7D077F6F777C395E87
:10018F0079717638373E735C400000080AFEFDFB3C
:0F019F00F7EFDFBF7F082B0600383F3E79003EA9
:1001CA00758901758C4C758ACBD2AFD2A9D28C2293
:10014E005407242BF8E6F580C2A67580FF7F027E49
:01015E0000A0
:10015F00D3EF9400EE6480948040147D727C00EDA8
:0F016F001D70011CED4C70F7EF1F70E41E80E156
:01017E00225E
:10000E00E509C3940840030200BED2A7850A80C248
:10001E00A77580FFD2A6E50912014ED2A7850B80E7
:10002E00C2A77580FFD2A6E5090412014ED2A7859C
:10003E000C80C2A77580FFD2A6E509240212014EDC
:10004E00D2A7850D80C2A77580FFD2A6E50924032D
:10005E0012014ED2A7850E80C2A77580FFD2A6E5EB
:10006E0009240412014ED2A7850F80C2A77580FF06
:10007E00D2A6E509240512014ED2A7851080C2A78B
:10008E007580FFD2A6E509240612014ED2A785116E
:10009E0080C2A77580FFD2A6E50924075407242B3A
:1000AE00F8E6F580C2A67580FF7F027E0002015F32
:0400BE00E4F509223A
:080003001201CA12000E80FB7D
:03000B000201AF40
:1001AF00C0E0C0D0758C4C758ACB0508E508B41437
:0B01BF00057508000509D0D0D0E03223
:030000000200C239
:0C00C200787FE4F6D8FD75813202010958
:1000CE00020003E493A3F8E493A34003F68001F245
:1000DE0008DFF48029E493A3F85407240CC8C33333
:1000EE00C4540F4420C8834004F456800146F6DF02
:1000FE00E4800B010204081020408090017FE47E12
:10010E00019360BCA3FF543F30E509541FFEE493F6
:10011E00A360010ECF54C025E060A840B8E493A3BD
:10012E00FAE493A3F8E493A3C8C582C8CAC583CAE8
:10013E00F0A3C8C582C8CAC583CADFE9DEE780BEA0
:0101AE000050
:00000001FF
