:0B0256003F065B4F666D7D077F6F0069
:03026100010C008D
:0901FD0093F580C2A67F027E008A
:10020600D3EF9400EE940040147D6E7C00ED1D70DB
:0D021600011CED4C70F7EF1F70E61E80E339
:0102230022B8
:1001BA00AA05D2A77580FEC2A7D2A6EF9002561250
:1001CA0001FDD2A77580FDC2A7D2A6EA1201FDD20F
:1001DA00A77580FBC2A7D2A6EB1201FDD2A7758034
:1001EA00F7C2A7D2A6E51393F580C2A67F027E00C6
:0301FA00020206F8
:10022400E50D24FE600E14600F1460102403700F9B
:10023400850E0822850E0922850E0A22850E0B22C0
:1000030075B0FE85B00F530FF0E50F64F060557FB8
:100013000A7E0012020685B00F530FF0E50F64F05D
:100023006042050C85B00FE50F2482602124C06077
:100033001624E0600B24F0701AE4F50E050D80130E
:10004300750E01050D800C750E02050D8005750EEC
:1000530003050DE50F64F0600885B00F530FF080C2
:10006300F212022475B0FD85B00F530FF0E50F6453
:10007300F060557F0A7E0012020685B00F530FF021
:10008300E50F64F06042050C85B00FE50F24836033
:100093002124C0601624E0600B24F0701A750E044E
:1000A300050D8013750E05050D800C750E06050DE7
:1000B3008005750E07050DE50F64F0600885B00F28
:1000C300530FF080F212022475B0FB85B00F530F6B
:1000D300F0E50F64F060487F0A7E0012020685B0E7
:1000E3000F530FF0E50F64F06035050C85B00FE595
:1000F3000F2445601624E0600B24F07011750E0880
:10010300050D800A750E09050D8003750E0AE50FAE
:1001130064F0600885B00F530FF080F2120224855B
:0B0123000B13AB0AAD09AF080201BAD4
:10024400D2A6E4F580C2A6D2A7F580C2A712000305
:0202540080FB2D
:0300000002012ECC
:0C012E00787FE4F6D8FD7581130201759E
:10013A00020244E493A3F8E493A34003F68001F295
:10014A0008DFF48029E493A3F85407240CC8C333C6
:10015A00C4540F4420C8834004F456800146F6DF95
:10016A00E4800B0102040810204080900261E47EC2
:10017A00019360BCA3FF543F30E509541FFEE4938A
:10018A00A360010ECF54C025E060A840B8E493A351
:10019A00FAE493A3F8E493A3C8C582C8CAC583CA7C
:1001AA00F0A3C8C582C8CAC583CADFE9DEE780BE34
:010264000099
:00000001FF
