:1001F800190A3F065B4F666D7D077F6F777C395E16
:0B02080079717638373E735C400000CF
:0401B1007F0A7E0043
:1001B500D3EF9400EE6480948040147D727C00ED52
:0F01C5001D70011CED4C70F7EF1F70E41E80E100
:0101D4002208
:04012500AB07AA0674
:100129007C007D0A12009A8F82AE02AF037C007DAB
:100139000A12009AAB05AA04D2A77580FEC2A7D2FB
:10014900A6AF82740A2FF8E6F580C2A67F017E0069
:100159001201B5D2A77580FDC2A7D2A6AF03740A52
:0E0169002FF8E6F580C2A67F017E000201B5E8
:0E022300758901758C4C758ACFD2AFD2A92295
:1001770020B00B1201B120B005050930B0FD20B148
:100187000B1201B120B105150930B1FD20B20B12D8
:1001970001B120B205B28C30B2FD20B30C1201B10F
:0A01A70020B306E4F50930B3FD2291
:0F021400120223120177AF097E0012012580F438
:03000B000201D51A
:1001D500C0E0C0D0758C4C758ACF0508E508B4140D
:1001E5000D7508000509E509B43C03750900D0D073
:0301F500D0E03225
:0300000002000EED
:0C000E00787FE4F6D8FD758122020055D1
:10009A00C2D5EC30E709B2D5E4C39DFDE49CFCEE81
:1000AA0030E715B2D5E4C39FFFE49EFE1200D0C329
:1000BA00E49DFDE49CFC80031200D030D507C3E424
:0600CA009FFFE49EFE22F0
:10001A00020214E493A3F8E493A34003F68001F2E6
:10002A0008DFF48029E493A3F85407240CC8C333E7
:10003A00C4540F4420C8834004F456800146F6DFB6
:10004A00E4800B01020408102040809001F8E47E4D
:10005A00019360BCA3FF543F30E509541FFEE493AB
:10006A00A360010ECF54C025E060A840B8E493A372
:10007A00FAE493A3F8E493A3C8C582C8CAC583CA9D
:10008A00F0A3C8C582C8CAC583CADFE9DEE780BE55
:0102130000EA
:1000D000BC000BBE0029EF8DF084FFADF022E4CC14
:1000E000F875F008EF2FFFEE33FEEC33FCEE9DECDD
:1000F000984005FCEE9DFE0FD5F0E9E4CEFD22ED23
:10010000F8F5F0EE8420D21CFEADF075F008EF2F6C
:10011000FFED33FD4007985006D5F0F222C398FD5D
:050120000FD5F0EA22FA
:00000001FF
