:10008F0019103F065B4F666D7D077F6F777C395E7A
:10009F0079717638373E735C4000000808FEFDFB2F
:0500AF00F7EFDFBF7F49
:1000D800D3EF9400EE6480948040147D727C00ED30
:0F00E8001D70011CED4C70F7EF1F70E41E80E1DE
:0100F70022E6
:1000B500D2A774082FF8E6F580C2A77580FFD2A6EF
:1000C50074102DF8E6F580C2A67580FF7F027E00CC
:0300D5000200D84E
:1000F800E4FBFAAF03AE02C374089BFDE49AFC125A
:0F01080000B50BBB00010AEB64084A70E680E10A
:03000000020003F8
:0C000300787FE4F6D8FD75812802004AE1
:10000F000200F8E493A3F8E493A34003F68001F20F
:10001F0008DFF48029E493A3F85407240CC8C333F2
:10002F00C4540F4420C8834004F456800146F6DFC1
:10003F00E4800B010204081020408090008FE47EC2
:10004F00019360BCA3FF543F30E509541FFEE493B6
:10005F00A360010ECF54C025E060A840B8E493A37D
:10006F00FAE493A3F8E493A3C8C582C8CAC583CAA8
:10007F00F0A3C8C582C8CAC583CADFE9DEE780BE60
:0100B400004B
:00000001FF
