:06010900F5907FC87E00A6
:10010F00D3EF9400EE6480948040147D727C00EDF8
:0F011F001D70011CED4C70F7EF1F70E41E80E1A6
:01012E0022AE
:10012F0020B00F7F0A7E0012010F20B0057E007FE6
:06013F000122E4FEFF2294
:1001450020B10F7F0A7E0012010F20B1057E007FCE
:060155000122E4FEFF227E
:10015B0020B20F7F0A7E0012010F20B2057E007FB6
:06016B000122E4FEFF2268
:1001710020B30F7F0A7E0012010F20B3057E007F9E
:060181000122E4FEFF2252
:1000550012012FEF4E7025120145EF4E701E120151
:100065005BEF4E7017120171EF4E7010AF90780173
:0D007500EF08800123D8FD12010980D4227C
:1000820012012FEF4E7025120145EF4E701E120124
:100092005BEF4E7017120171EF4E7010AF90780146
:0D00A200EF08800103D8FD12010980D4226F
:1000AF0012012FEF4E7025120145EF4E701E1201F7
:1000BF005BEF4E7017120171EF4E7010AF90780317
:0D00CF00EF08800123D8FD12010980D42222
:1000DC0012012FEF4E7025120145EF4E701E1201CA
:1000EC005BEF4E7017120171EF4E7010AF907803EA
:0D00FC00EF08800103D8FD12010980D42215
:1000030012012FEF4E600D12012FEF4E7006759007
:10001300FE120055120145EF4E600D120145EF4EE1
:10002300700675907F12008212015BEF4E600D1215
:10003300015BEF4E70067590FE1200AF120171EF77
:100043004E60BD120171EF4E70B675907F1200DCE9
:0200530080AE7D
:0301930002000364
:0300000002018773
:0C018700787FE4F6D8FD75810702019333
:00000001FF
