:0C00F700010B00C100010800020900001C
:1000D10020B01D0508E508C3946440197508642023
:1000E1000013D200050BE50B94034009E4F50B2244
:0500F100C200E4F50867
:0100F60022E7
:10008F00050AE50A70020509C39410E50994274093
:10009F0030E4F509F50AE50B14600B146016240221
:1000AF00701F7590FE22AF907801EF08800123D862
:1000BF00FDF59022AF907801EF08800103D8FDF590
:0100CF0090A0
:0100D000220D
:080104001200D112008F80F8F7
:03000000020003F8
:0C000300787FE4F6D8FD75812002004AE9
:10000F00020104E493A3F8E493A34003F68001F202
:10001F0008DFF48029E493A3F85407240CC8C333F2
:10002F00C4540F4420C8834004F456800146F6DFC1
:10003F00E4800B01020408102040809000F7E47E5A
:10004F00019360BCA3FF543F30E509541FFEE493B6
:10005F00A360010ECF54C025E060A840B8E493A37D
:10006F00FAE493A3F8E493A3C8C582C8CAC583CAA8
:10007F00F0A3C8C582C8CAC583CADFE9DEE780BE60
:0101030000FB
:00000001FF
