:0A09E300C0F9A4B0999282F8809048
:10080000759703E4F593F591F5957594FF7592FF4F
:100810007596FFF517F508C291C290758911D28CB3
:10082000C288D2A9C2A8D2AFC2AFD2901209BCC2AC
:100830009030B2FDC200D2A8E4F58DF58BC28FD204
:100840008ED2AFAF8DC3EF941E7480948040F4C2FB
:100850008EC2A8300029752100850C22E522752260
:1008600000F521E50E4222E4AE21AF22FC7D0C1200
:1008700008CB8E218F227D3A1208DD8E218F222017
:100880000007E4F521F522B291852123852224E594
:1008900026B52408E525B52303E4F527E5266524D8
:1008A0007004E525652360020527C3E527940374DA
:1008B0008094805003020828E4F5278523258524A9
:0B08C00026AF26AE25120932020828E0
:030003000209D817
:0B09D800858D0C858B0ED200C2A8326A
:03000B0002098463
:10098400C0E0C0D0758CFD758A77E5081460111439
:1009940060182402701D850D8075A0FD0508801364
:1009A400850B8075A0FE0508800985098075A0FB6C
:0809B400750800D0D0D0E0323C
:04093200AB07AA065F
:100936007C007D641208DD8F297C007D64AF03AEE8
:10094600021208DDAA04AB057C007D0AAF03AE02E5
:100956001208DD8F287C007D0AAF03AE021208DD87
:10096600AF05E5299009E393F529E52893F528EFE6
:0D09760093C2AF85290985280BF50DD2AF7E
:010983002251
:0F09BC00E4FFEFC394647480948050030F80F3C2
:0109CB002209
:030000000209CC26
:0C09CC00787FE4F6D8FD75812902080050
:1008CB00EF8DF0A4A8F0CF8CF0A428CE8DF0A42E41
:0208DB00FE22FB
:1008DD00BC000BBE0029EF8DF084FFADF022E4CCFF
:1008ED00F875F008EF2FFFEE33FEEC33FCEE9DECC8
:1008FD00984005FCEE9DFE0FD5F0E9E4CEFD22ED0E
:10090D00F8F5F0EE8420D21CFEADF075F008EF2F57
:10091D00FFED33FD4007985006D5F0F222C398FD48
:05092D000FD5F0EA22E5
:00000001FF
