:0B047C003F065B4F666D7D077F6F0041
:10046900011B0001180002160000021D0000020F06
:02047900000081
:09044200C2A77580FF7F057E0052
:10044B00D3EF9400EE940040147D6E7C00ED1D7094
:0D045B00011CED4C70F7EF1F70E61E80E3F2
:010468002271
:0903EA00851522AB14AD13AF110F
:1003F300AA05D2A6EF90047C93F580C2A6D2A77576
:1004030080FE120442D2A6EA93F580C2A6D2A77553
:1004130080FD120442D2A6EB93F580C2A6D2A77543
:1004230080FB120442D2A6E52293F580C2A6D2A78E
:0F0433007580F7C2A77580FF7F057E0002044B1E
:10016B00E51B14B40800504C90018175F003A4C535
:10017B008325F0C5837302019902019E0201A3023C
:10018B0001A80201AD0201B20201B70201BC851C3C
:10019B000B8021851C0C801C851C0D8017851C0E6B
:1001AB008012851C11800D851C138008851C148002
:1001BB0003851C15E51BD39404503E850E22AB0D15
:1001CB00AD0CAF0B1203F3AF0B7E007C037DE8127B
:1001DB000383AC06AD07E50C75F064A42DFDEC357F
:1001EB00F0FCE50D75F00AA42DFFE5F03CFE7C005C
:1001FB00EF250EF517EC3EF516E51BD394044035B1
:10020B001203EAAF117E007C037DE8120383AC0678
:10021B00AD07E51375F064A42DFDEC35F0FCE5148A
:10022B0075F00AA42DFFE5F03CFE7C00EF2515F5DB
:06023B001EEC3EF51D2241
:1000030075B0FE85B01F531FF0E51F64F060507F8D
:100013000A7E0012044B85B01F531FF0E51F64F0E6
:10002300603D85B01FE51F2482602124C060162433
:10003300E0600B24F0701AE4F51C051B8013751C9B
:1000430001051B800C751C02051B8005751C03052F
:100053001BE51F64F0600885B01F531FF080F27525
:10006300B0FD85B01F531FF0E51F64F060507F0A99
:100073007E0012044B85B01F531FF0E51F64F06030
:100083003D85B01FE51F2483602124C0601624E052
:10009300600B24F0701A751C04051B8013751C0576
:1000A300051B800C751C06051B8005751C07051BAD
:1000B300E51F64F0600885B01F531FF080F275B030
:1000C300FB85B01F531FF0E51F64F0604C7F0A7E71
:1000D3000012044B85B01F531FF0E51F64F0603915
:1000E30085B01FE51F2485601F24C0601624E060CF
:1000F3000B24F07016751C08051B800F751C090571
:100103001B80087519018003751201E51F64F060F7
:100113000885B01F531FF080F275B0F785B01F53E9
:100123001FF0E51F64F0603F7F0A7E0012044B85D9
:10013300B01F531FF0E51F64F0602C85B01FE51F4F
:100143002449601224E0600924F0700D75090180D0
:1001530008751A018003750A01E51F64F0600885BC
:07016300B01F531FF080F2F2
:01016A002272
:10024100D2A6E4F580C2A6D2A7F580C2A712000308
:1002510012016BE50AB401F5E519B4010CE51725A6
:100261001EF510E516351DF50FE512B4010DC3E5B8
:1002710017951EF510E516951DF50FE509B4010F4B
:10028100AC1DAD1EAE16AF171203838E0F8F10E596
:100291001AB4010FAC1DAD1EAE16AF171203958E29
:1002A1000F8F10AE0FAF107C037DE81203958F11F5
:1002B100AE0FAF107C037DE81203957E007F64CF03
:1002C100CDCFCECCCE1203958F13AE0FAF107C00E5
:1002D1007D641203957E007F0ACFCDCFCECCCE12A6
:1002E10003958F14AE0FAF107C007D0A1203958D1C
:0602F100151203EA80FB78
:030000000202F702
:0C02F700787FE4F6D8FD75812202033EFA
:10038300EF8DF0A4A8F0CF8CF0A428CE8DF0A42E8E
:02039300FE2248
:10039500BC000BBE0029EF8DF084FFADF022E4CC4C
:1003A500F875F008EF2FFFEE33FEEC33FCEE9DEC15
:1003B500984005FCEE9DFE0FD5F0E9E4CEFD22ED5B
:1003C500F8F5F0EE8420D21CFEADF075F008EF2FA5
:1003D500FFED33FD4007985006D5F0F222C398FD96
:0503E5000FD5F0EA2233
:10030300020241E493A3F8E493A34003F68001F2CD
:1003130008DFF48029E493A3F85407240CC8C333FB
:10032300C4540F4420C8834004F456800146F6DFCA
:10033300E4800B0102040810204080900469E47EED
:10034300019360BCA3FF543F30E509541FFEE493BF
:10035300A360010ECF54C025E060A840B8E493A386
:10036300FAE493A3F8E493A3C8C582C8CAC583CAB1
:10037300F0A3C8C582C8CAC583CADFE9DEE780BE69
:01047B000080
:00000001FF
