:0A08EF000808FEFCF8F0E0C08000ED
:1008CF00D3EF9400EE6480948040147D727C00ED31
:0F08DF001D70011CED4C70F7EF1F70E41E80E1DF
:0108EE0022E7
:10088C007B107A00900000AF8274082FF8E6F59088
:10089C00EB1BAE0270011A4E6016AF907801EF0898
:1008AC00800123D8FDF5907F147E001208CF80E0E4
:1008BC007A007B10A3E5826408458370CAF583F542
:0308CC008280C463
:03000000020800F3
:0C080000787FE4F6D8FD75810F020847F0
:10080C0002088CE493A3F8E493A34003F68001F26E
:10081C0008DFF48029E493A3F85407240CC8C333ED
:10082C00C4540F4420C8834004F456800146F6DFBC
:10083C00E4800B01020408102040809008EFE47E55
:10084C00019360BCA3FF543F30E509541FFEE493B1
:10085C00A360010ECF54C025E060A840B8E493A378
:10086C00FAE493A3F8E493A3C8C582C8CAC583CAA3
:10087C00F0A3C8C582C8CAC583CADFE9DEE780BE5B
:0108F90000FE
:00000001FF
