:0700030025642025640A00BA
:100B8300020A000002080000040E00000000020C2C
:040B93000000C10994
:100AA400AF8CEFFEAD8A7C00E42DF50BEC3EF50A2D
:100AB400E4F58CF58AAC0AAD0B1201B97B297A5C9A
:100AC40079EF783F12000EE4FBFA79C878421201FC
:100AD400178F118E108D0F8C0EE4FBFA792078415C
:100AE4001201171201F28E0C8F0D300902C2097B1C
:100AF400FF7A007903851128851027850F26850E36
:0A0B040025850C29850D2A02060B39
:100B69007C64EF4E60131CEC60087D0A1DED60F695
:090B790080FAEF1F70EC1E80E908
:010B82002250
:03000B00020BA83D
:030BA800D209323D
:100B9800D2910000000000000000000000C2912275
:100B0E00758921759850758DFD758BFDE4F58CF505
:100B1E008AD28CD2A9D28ED299D2AF120B983090A3
:100B2E00FDD28C2090FDC28C120AA47F647E00122E
:040B3E000B6980E7D8
:10000E00EC4D6011E8497017ED33EC3304600DE4EC
:10001E00FCFFFEFD22E933E8330470F802025E12A3
:10002E00022958046009E4CC2481500628500902A4
:10003E000268284003020265C0E0EB4A7044B980B2
:10004E0006D0E0FB020254EF4E701CBD8008EBFFA1
:10005E00EAFEE9FD80EBE98DF0A4FEE5F00200F783
:10006E00E9CDF9EAFEEBFFEF89F0A4FCE5F0CE89CD
:10007E00F0A42EFFE435F0CD89F0A42DFEE435F08A
:10008E008067EF4E7005BD80D780C3EF8BF0A4ACB8
:10009E00F0EE8BF0A42CFCE435F0F8EF8AF0A42CF3
:1000AE00E5F038FCE433CB8DF0A42CFCE5F03BF806
:1000BE00EE8AF0A42CFCE5F038F8E433CF89F0A4F6
:1000CE002CFCE5F038CF3400CE89F0A42FFFE5F0FC
:1000DE003EFEE433C98DF0A42EFEE5F039CD8AF054
:1000EE00A42FFFE5F03EFEE43DFD33D0E0FB5007CC
:1000FE000BBB000F020268EC2CFCEF33FFEE33FE5D
:06010E00ED33FD0202408A
:10011400020268EC5D046005E85904700302025EA3
:10012400120229580460F6EC4860F2EC7004FDFEFB
:10013400FF22C860DB2481C85009C39860025006BE
:100144000202659850CAF582E9294B4A7005AB82D0
:1001540002025475F0007C1A7880C3EF9BEE9AED8E
:1001640099400DC3EF9BFFEE9AFEED99FDE842F036
:10017400DC23ACF0D0E0FFD0E0FED0E0FDAB822089
:10018400E7101BEB60BAEC2CFCEF33FFEE33FEED13
:1001940033FD020240E803F830E705C0F075F000D3
:1001A400EF2FFFEE33FEED33FD40B830E7C280AAF7
:1001B40075F020800E75F010800575F0087D007EC6
:1001C400007F003392D530D503120565EC3340101F
:1001D400EF33FFEE33FEED33FDEC33FCD5F0ED22CF
:0E01E400E5F0247EA2D513CC92E7CDCEFF220B
:1001F200EDD2E7CD33EC3392D524814006E4FFFE05
:10020200FDFC22FCE4CFCECDCC24E0501174FF8063
:10021200EDC3CC13CCCD13CDCE13CECF13CF047000
:07022200F030D5DE02056596
:1005A900E5392425F8E6053922782230070278252D
:1005B900E475F00112057302050D2000EB7F2ED2C0
:1005C900008018EF540F2490D43440D4FF30040B2A
:1005D900EF24BFB41A0050032461FFE53A60021505
:1005E9003A053DE53D7002053C30070D7822E4757A
:1005F900F001120573EF020553020B427403D2078F
:100609008003E4C207F5398B228A238924E4F53A69
:10061900F53CF53DE53A60077F201205E480F57564
:100629003BFFC201C200C202C203C205C206C20820
:100639001205B2FF700D3007057F001205F5AF3DB9
:10064900AE3C22B4255FC2D5C2041205B2FF24D044
:10065900B40A00501A75F00A783A30D50508B6FF81
:100669000106C6A426F620D5047002D20380D92437
:10067900CFB41A00EF5004C2E5D2040208E2D20155
:1006890080C6D20080C0D20280BCD2D580BAD20541
:1006990080B47F201205E42002077401B53A0040B6
:1006A900F11205A9FF1205E402061DD208D206803F
:1006B900951205A9FB1205A9FA1205A9F94A4B7069
:1006C9000679D97A097BFF20022EE53A602A7E0055
:1006D9008E8275830012052660060EEE653B70F06A
:1006E900C2D5EBC0E0EAC0E0E9C0E0EE120942D0B1
:1006F900E0F9D0E0FAD0E0FB12050DFF60AAEBC0EB
:10070900E0EAC0E0E9C0E01205E4D0E02401F9D054
:10071900E03400FAD0E0FBE53B0460DCD53BD9804E
:1007290087D20280A212092560F7E53B7001041205
:100739000273A93B600DE53B600914F53B1209CC36
:10074900EF60F3EA30E702F404C3995077EAF4253D
:100759003B0430E701E404F53B800D12092560C133
:10076900EA053B253B120273EA7838F630E701E4E3
:10077900253B04D53B0420050114120942E4C0E0DD
:100789001209CC7838E6601320E70714F61205CC75
:10079900802204F6D0E014C0E07F001205CCE53BCE
:1007A90060071205C3153B800B3005031205C3D042
:1007B900E002061DD0E00480C512092560A0E53BD2
:1007C900041202737838EAF6E53B20050260010459
:0507D900240412094296
:1007DE0074FF04C0E01209CC1205CCE53B200502E3
:1007EE0060031205C3D0E0B53BE87F451205D6780D
:1007FE0038E67F2B30E7047F2DF404C0E01205E4C9
:10080E00D0E075F00A84C0F01205CDD0E01205CD0F
:10081E0002061D791080027908C206C2088008D22D
:10082E00D5790A8004790AC2D5E53B047002F53BFE
:10083E00E4FAFDFEFF1205A9FC7B08200113120548
:10084E00A9FD7B1030000A1205A9FE1205A9FF7B37
:10085E0020EC3382D592D55013C3E43000069FFFAF
:10086E00E49EFEE42001039DFDE49CFCE4CBF8C273
:10087E0001EC700CCFCECDCCE824F8F870F38017D5
:10088E00C3EF33FFEE33FEED33FDEC33FCEB33FB06
:10089E00994002FB0FD8E9EB300105F8D0E0C448CF
:1008AE00B201C0E00AEC4D4E4F78207B0070C2EAD8
:1008BE00B53B0040BCC0E0120944D0F0D0E02001AE
:1008CE0004C4C0E0C4B201C0F01205CDD0F0D5F022
:1008DE00EB02061D12058306BA53082158068B4CEF
:1008EE0006874208254F082D44082D4906A04308C7
:1008FE00335507644607C245072E4709F950068F40
:10090E002D06932E06B62B06972306B42009E22A4F
:10091E00064F48000006AEE53BB4FF03753B0612DA
:10092E0005A9FC1205A9FD1205A9FE1205A9FF785D
:10093E00310202A2790AA2D5200314300509B9109A
:10094E00020404B9080104A2D520060250010420B5
:10095E0002689202B53A005034C0E07F203003198D
:10096E007F30A20272067205500F12099BC202C29C
:10097E0006C205C2087F30800F300503E9C0E012C1
:10098E0005E4300503D0E0F9D0E0B53ACC300517D8
:10099E007F30B9100C1205E47F583004077F788041
:1009AE0003B908031205E43002057F2D0205E47F2A
:1009BE00202008F87F2B2006F322920280CF7F00A2
:1009CE00B4070050052431F8E6FF22286E756C6CD2
:1009DE002900D2011205A93001F8C201783A30D5AA
:1009EE000108F602064F2D504349581205A924035B
:1009FE00B405004001E49009F4931205D5743A123F
:0A0A0E0005D5D203753A0402082151
:10022900E9D2E7C933E833F892D5EDD2E7CD33EC1B
:0702390033FC5002B2D52294
:10024000EC30E7100FBF000C0EBE00080DBD00041F
:100250000BEB6014A2D5EB13FCED92E7FD2274FFCB
:10026000FCFDFEFF22E480F8A2D574FF13FC7D8024
:03027000E480EF38
:10027300F920E72824F950037907E4F42402FB1852
:10028300DBFDE624FB5014E9600DE4F618E604F602
:0F029300B40A08E4F6D9F57401F60A22C2D5229E
:1002A200ED33EC3392D5FA602AB4FF33EDC2E77B2B
:1002B200FF60067A0279C7E4227A0279D020D50457
:1002C2007A0279CB224E614E002B494E46002D49CF
:1002D2004E4600E47A08F608DAFC7B00740722E84E
:1002E200C0E0ECC0E0EDC0E0EEC0E0EFC0E0EA75D7
:1002F200F010A4CAABF075F04DA42BFBE435F0FC72
:10030200EA2410FAEB34C5FBEC34D9FCEDC2E7FF6A
:1003120075F056A4F42411C5F0F434C58FF0A42A64
:10032200E5F03BE43CF620E7141204CDD0E0FFD028
:10033200E0FED0E0FDD0E0FC1201178014F40412BC
:1003420004CDD0E0FFD0E0FED0E0FDD0E0FC120012
:100352000ED0E0F8E6FAEDD2E7CD33EC332482FB9F
:10036200E4C3CF33CFCE33CECD33CD33DBF37B07F4
:1003720075F00A846004F6081B0AE5F0F6088FF0AF
:10038200740AA4FFACF08EF0740AA42CFEACF050F8
:10039200010C8DF0740AA42CFDE435F0F608DBDEC6
:0303A200740722BB
:1003A50002025EE86480F8E933E83360110460F026
:1003B500ED33EC337009E8FCE9FDEAFEEBFF2204BE
:1003C50060DED3EB9FEA9EE99DE8C2E78CF0C2F7B9
:1003D50095F0400CE8CCF8E9CDF9EACEFAEBCFFB85
:1003E50012022985D0F05804700320D5B3E80470B3
:1003F500075002B2D502026892D5EC0460F7E4CC4E
:10040500C0E0C398F8603B94186008400DD0E0FB4D
:10041500020240E4FBFAC9FC8028E830E406E4C99E
:10042500FBE4CAFCE830E305E4C9CACBFCE85407A1
:100435006010F8C3E913F9EA13FAEB13FBEC13FCAC
:10044500D8F130F52FC3E49CFCEF9BFFEE9AFEED4F
:1004550099FDD0E0FBEF4E4D4C701222DB030202FA
:1004650065EC2CFCEF33FFEE33FEED33FDED30E7AD
:10047500EB020240EF2BFFEE3AFEED39FDD0E0FB3B
:1004850050130BBB0003020268ED13FDEE13FEEFE4
:0804950013FFEC13FC0202400E
:10049D003F8000004120000042C80000447A000067
:1004AD00461C400047C35000497424004B189680E9
:1004BD004CBEBC205A0E1BCA6753C21C749DC5AEE0
:1004CD00FB60065407601C23231204FBEB543860B9
:1004DD00091204E71204F612000EECF8EDF9EEFA2B
:1004ED00EFCB22EB1204F680F1543803241C900458
:1004FD009DFE93FC0EEE93FD0EEE930ECE93FF221A
:03000000020A18D9
:0C0A1800787FE4F6D8FD75813D020A5F8E
:10050D00BB010689828A83E0225002E722BBFE02EC
:09051D00E32289828A83E493221F
:10052600BB010CE58229F582E5833AF583E022508A
:1005360006E92582F8E622BBFE06E92582F8E222D4
:0D054600E58229F582E5833AF583E49322EE
:10055300BB010689828A83F0225002F722BBFE0187
:02056300F32281
:0E056500C3E49FFFE49EFEE49DFDE49CFC22A7
:10057300FAE6FB0808E6F925F0F618E6CA3AF62289
:10058300D083D082F8E4937012740193700DA3A307
:1005930093F8740193F5828883E47374029368601B
:0605A300EFA3A3A380DF1B
:100B4200EFB40A07740D120B4D740A309811A8996C
:100B5200B8130CC2983098FDA899C298B811F63013
:070B620099FDC299F59922EB
:100A2400020B0EE493A3F8E493A34003F68001F2CF
:100A340008DFF48029E493A3F85407240CC8C333D3
:100A4400C4540F4420C8834004F456800146F6DFA2
:100A5400E4800B0102040810204080900B83E47EA4
:100A6400019360BCA3FF543F30E509541FFEE49397
:100A7400A360010ECF54C025E060A840B8E493A35E
:100A8400FAE493A3F8E493A3C8C582C8CAC583CA89
:100A9400F0A3C8C582C8CAC583CADFE9DEE780BE41
:010B9700005D
:00000001FF
