:10085E007E00D3EF9400EE6480948040147D727C11
:10086E0000ED1D70011CED4C70F7EF1F70E41E8043
:01087E00E198
:01087F002256
:10088000758901758CFF758AACD2AFD2A9D28C2242
:1008000020B1167F0A12085E20B10E0509E4F50832
:10081000E509641A700375091920B0167F0A1208D9
:100820005E20B00E1509E4F508E50964057003754E
:0308300009062294
:0E089000750919E4F50812088012080080FBB3
:03000B00020833B5
:10083300C0E0C0F0C0D0758CFF758AACE508D395D5
:10084300095004D2908002C2900508E50875F0C8EB
:0B0853008485F008D0D0D0F0D0E03257
:0300000002089E55
:0C089E00787FE4F6D8FD7581090208900F
:00000001FF
