:10010A0019123F065B4F666D7D077F6F777C395EFC
:10011A0079717638373E735C400000080AFEFDFBB1
:05012A00F7EFDFBF7FCD
:10016B00758901758C4C758ACBD2AFD2A9D28C22F2
:10013000D3EF9400EE6480948040147D727C00EDD7
:0F0140001D70011CED4C70F7EF1F70E41E80E185
:01014F00228D
:07009A00E509D3940A505858
:1000A100E50975F00A84752B00F52CE50975F00A50
:1000B10084AFF0752D008F2ED2A7850A80C2A77557
:1000C10080FFD2A67412252CF8E6F580C2A67580B1
:1000D100FF7F027E00120130D2A7850B80C2A77577
:1000E10080FFD2A67412252EF8E6F580C2A675808F
:0800F100FF7F027E00020130D6
:1000F900E4F509AF907801EF08800123D8FDF59068
:0101090022D3
:0B017B007590FE12016B12009A80FBD1
:03000B000201509F
:10015000C0E0C0D0758C4C758ACB0508E508B402A8
:0B016000057508000509D0D0D0E03282
:0300000002000EED
:0C000E00787FE4F6D8FD75812E020055C5
:10001A0002017BE493A3F8E493A34003F68001F280
:10002A0008DFF48029E493A3F85407240CC8C333E7
:10003A00C4540F4420C8834004F456800146F6DFB6
:10004A00E4800B010204081020408090010AE47E3B
:10005A00019360BCA3FF543F30E509541FFEE493AB
:10006A00A360010ECF54C025E060A840B8E493A372
:10007A00FAE493A3F8E493A3C8C582C8CAC583CA9D
:10008A00F0A3C8C582C8CAC583CADFE9DEE780BE55
:01012F0000CF
:00000001FF
